S0030000FC
S113010010CE0FFF8E2000C6801702278E2080C6D7
S11301108017021F8603B7DF008694B7DF001CEF49
S1130120BD0165BD013A20F834108E20001A101765
S1130130022D1CEF359086202006860D8D02860A3E
S113014034128E20801A101701F71CEF24F786B49E
S1130150B7DF003592BD0140863DBD01401F10BD93
S1130160024F7E013686F4973086CF9731D6311D03
S11301708E00E5BD02A08E0064BD0307DD20DD24F2
S1130180D6301D8E01A0BD02A08E0064BD0307DD24
S113019022DD260F32DC268E0032BD0307DD2C8ED5
S11301A0FFCEBD02A0D326DD28DC261F01BD02A0A0
S11301B03406DC241F01BD02A0A3E18E0032BD037E
S11301C007D3203406DC249E2CBD02A03406DC2494
S11301D09E28BD02A08E0032BD0307E3E15849D337
S11301E022DD263506DD248E0032BD0307DD2A1FFD
S11301F001BD02A03406DC268E0032BD0307DD2CCF
S11302001F01BD02A0E3E1DD2EDC2E108300042ECD
S11302100E0C32963281101025FF7A8620200C961F
S113022032800A2A048B3A20028B41BD0140BD0171
S11302302824044D26013F0C319631811E102DFFD8
S11302402CBD013A0C309630810D102DFF1B393432
S1130250064D2A0C862DBD0140ECE44353C3000136
S11302608D023586C300002715C3000027158E00B4
S11302700ABD02CC1E0134041E018DED35028A3004
S11302807E01403934071F10E6623DE7E41F10A6E3
S1130290613DEBE4E7E41F10A6623DABE432633951
S11302A034061F10A8E43402EC611E014D2A0543F4
S11302B053C300011E014D2A054353C300018DC4DD
S11302C06DE02A054353C300013262393417308488
S11302D02730C601E7E41F10200458496CE44D2A76
S11302E0F9ED638E0000EC61200A646366641E010C
S11302F058491E01A363250430012002E3636AE424
S113030026E81E0132653934061F10A8E43402ECD5
S1130310611E014D2A054353C300011E014D2A05E8
S11303204353C300018DA56DE02A054353C3000167
S113033032623934146F805A26FB3514C004E70145
S11303403934541F13E6C4E1412412E6423AA704A7
S11303506CC45CE742E14125046F421A0135D46D57
S11303608426031CFE3934541F13E6433AA6046A58
S1130370C45CE743E14125046F431A0135D4F6DF39
S113038000C580271CC5012709B6DF018E2000BDEA
S11303900341C502270B8E2080BD035F2404B7DF11
S10C03A0013B8694B7DF003B3FEA
S105FFF8037E82
S105FFFE0100FC
S9030000FC
